{
  "_format": "hh-sol-artifact-1",
  "contractName": "RangeProtocolBlurVault",
  "sourceName": "contracts/RangeProtocolBlurVault.sol",
  "abi": [
    {
      "inputs": [
        {
          "internalType": "address",
          "name": "target",
          "type": "address"
        }
      ],
      "name": "AddressEmptyCode",
      "type": "error"
    },
    {
      "inputs": [
        {
          "internalType": "address",
          "name": "account",
          "type": "address"
        }
      ],
      "name": "AddressInsufficientBalance",
      "type": "error"
    },
    {
      "inputs": [],
      "name": "ECDSAInvalidSignature",
      "type": "error"
    },
    {
      "inputs": [
        {
          "internalType": "uint256",
          "name": "length",
          "type": "uint256"
        }
      ],
      "name": "ECDSAInvalidSignatureLength",
      "type": "error"
    },
    {
      "inputs": [
        {
          "internalType": "bytes32",
          "name": "s",
          "type": "bytes32"
        }
      ],
      "name": "ECDSAInvalidSignatureS",
      "type": "error"
    },
    {
      "inputs": [
        {
          "internalType": "address",
          "name": "implementation",
          "type": "address"
        }
      ],
      "name": "ERC1967InvalidImplementation",
      "type": "error"
    },
    {
      "inputs": [],
      "name": "ERC1967NonPayable",
      "type": "error"
    },
    {
      "inputs": [
        {
          "internalType": "address",
          "name": "spender",
          "type": "address"
        },
        {
          "internalType": "uint256",
          "name": "allowance",
          "type": "uint256"
        },
        {
          "internalType": "uint256",
          "name": "needed",
          "type": "uint256"
        }
      ],
      "name": "ERC20InsufficientAllowance",
      "type": "error"
    },
    {
      "inputs": [
        {
          "internalType": "address",
          "name": "sender",
          "type": "address"
        },
        {
          "internalType": "uint256",
          "name": "balance",
          "type": "uint256"
        },
        {
          "internalType": "uint256",
          "name": "needed",
          "type": "uint256"
        }
      ],
      "name": "ERC20InsufficientBalance",
      "type": "error"
    },
    {
      "inputs": [
        {
          "internalType": "address",
          "name": "approver",
          "type": "address"
        }
      ],
      "name": "ERC20InvalidApprover",
      "type": "error"
    },
    {
      "inputs": [
        {
          "internalType": "address",
          "name": "receiver",
          "type": "address"
        }
      ],
      "name": "ERC20InvalidReceiver",
      "type": "error"
    },
    {
      "inputs": [
        {
          "internalType": "address",
          "name": "sender",
          "type": "address"
        }
      ],
      "name": "ERC20InvalidSender",
      "type": "error"
    },
    {
      "inputs": [
        {
          "internalType": "address",
          "name": "spender",
          "type": "address"
        }
      ],
      "name": "ERC20InvalidSpender",
      "type": "error"
    },
    {
      "inputs": [],
      "name": "EnforcedPause",
      "type": "error"
    },
    {
      "inputs": [],
      "name": "ExpectedPause",
      "type": "error"
    },
    {
      "inputs": [],
      "name": "FailedInnerCall",
      "type": "error"
    },
    {
      "inputs": [],
      "name": "ImbalancedVaultAsset",
      "type": "error"
    },
    {
      "inputs": [],
      "name": "InsufficientUserBalance",
      "type": "error"
    },
    {
      "inputs": [],
      "name": "InsufficientVaultBalance",
      "type": "error"
    },
    {
      "inputs": [
        {
          "internalType": "address",
          "name": "account",
          "type": "address"
        },
        {
          "internalType": "uint256",
          "name": "currentNonce",
          "type": "uint256"
        }
      ],
      "name": "InvalidAccountNonce",
      "type": "error"
    },
    {
      "inputs": [
        {
          "internalType": "uint256",
          "name": "amount",
          "type": "uint256"
        }
      ],
      "name": "InvalidETHAmount",
      "type": "error"
    },
    {
      "inputs": [],
      "name": "InvalidInitialization",
      "type": "error"
    },
    {
      "inputs": [
        {
          "components": [
            {
              "internalType": "address",
              "name": "lender",
              "type": "address"
            },
            {
              "internalType": "address",
              "name": "borrower",
              "type": "address"
            },
            {
              "internalType": "contract ERC721",
              "name": "collection",
              "type": "address"
            },
            {
              "internalType": "uint256",
              "name": "tokenId",
              "type": "uint256"
            },
            {
              "internalType": "uint256",
              "name": "amount",
              "type": "uint256"
            },
            {
              "internalType": "uint256",
              "name": "startTime",
              "type": "uint256"
            },
            {
              "internalType": "uint256",
              "name": "rate",
              "type": "uint256"
            },
            {
              "internalType": "uint256",
              "name": "auctionStartBlock",
              "type": "uint256"
            },
            {
              "internalType": "uint256",
              "name": "auctionDuration",
              "type": "uint256"
            }
          ],
          "internalType": "struct Lien",
          "name": "lien",
          "type": "tuple"
        },
        {
          "internalType": "uint256",
          "name": "lienId",
          "type": "uint256"
        }
      ],
      "name": "InvalidLien",
      "type": "error"
    },
    {
      "inputs": [
        {
          "internalType": "uint256",
          "name": "managerFee",
          "type": "uint256"
        }
      ],
      "name": "InvalidManagerFee",
      "type": "error"
    },
    {
      "inputs": [
        {
          "internalType": "address",
          "name": "recipient",
          "type": "address"
        }
      ],
      "name": "InvalidRecipient",
      "type": "error"
    },
    {
      "inputs": [
        {
          "internalType": "bytes",
          "name": "signature",
          "type": "bytes"
        }
      ],
      "name": "InvalidSignature",
      "type": "error"
    },
    {
      "inputs": [],
      "name": "NotInitializing",
      "type": "error"
    },
    {
      "inputs": [
        {
          "internalType": "uint256",
          "name": "deadline",
          "type": "uint256"
        }
      ],
      "name": "OutdatedOrder",
      "type": "error"
    },
    {
      "inputs": [],
      "name": "ReentrancyGuardReentrantCall",
      "type": "error"
    },
    {
      "inputs": [],
      "name": "RefinanceFailed",
      "type": "error"
    },
    {
      "inputs": [],
      "name": "UUPSUnauthorizedCallContext",
      "type": "error"
    },
    {
      "inputs": [
        {
          "internalType": "bytes32",
          "name": "slot",
          "type": "bytes32"
        }
      ],
      "name": "UUPSUnsupportedProxiableUUID",
      "type": "error"
    },
    {
      "inputs": [],
      "name": "ZeroBlendAddress",
      "type": "error"
    },
    {
      "inputs": [],
      "name": "ZeroBlurPoolAddress",
      "type": "error"
    },
    {
      "inputs": [],
      "name": "ZeroBurnAmount",
      "type": "error"
    },
    {
      "inputs": [],
      "name": "ZeroManagerAddress",
      "type": "error"
    },
    {
      "anonymous": false,
      "inputs": [
        {
          "indexed": true,
          "internalType": "address",
          "name": "owner",
          "type": "address"
        },
        {
          "indexed": true,
          "internalType": "address",
          "name": "spender",
          "type": "address"
        },
        {
          "indexed": false,
          "internalType": "uint256",
          "name": "value",
          "type": "uint256"
        }
      ],
      "name": "Approval",
      "type": "event"
    },
    {
      "anonymous": false,
      "inputs": [
        {
          "indexed": false,
          "internalType": "address",
          "name": "collection",
          "type": "address"
        },
        {
          "indexed": false,
          "internalType": "uint256",
          "name": "tokenId",
          "type": "uint256"
        },
        {
          "indexed": false,
          "internalType": "uint256",
          "name": "lienId",
          "type": "uint256"
        }
      ],
      "name": "AuctionStarted",
      "type": "event"
    },
    {
      "anonymous": false,
      "inputs": [
        {
          "indexed": true,
          "internalType": "address",
          "name": "from",
          "type": "address"
        },
        {
          "indexed": false,
          "internalType": "uint256",
          "name": "shares",
          "type": "uint256"
        },
        {
          "indexed": false,
          "internalType": "uint256",
          "name": "withdrawAmount",
          "type": "uint256"
        }
      ],
      "name": "Burned",
      "type": "event"
    },
    {
      "anonymous": false,
      "inputs": [],
      "name": "EIP712DomainChanged",
      "type": "event"
    },
    {
      "anonymous": false,
      "inputs": [
        {
          "indexed": false,
          "internalType": "uint64",
          "name": "version",
          "type": "uint64"
        }
      ],
      "name": "Initialized",
      "type": "event"
    },
    {
      "anonymous": false,
      "inputs": [
        {
          "indexed": false,
          "internalType": "uint256",
          "name": "lienId",
          "type": "uint256"
        },
        {
          "indexed": false,
          "internalType": "uint256",
          "name": "amount",
          "type": "uint256"
        }
      ],
      "name": "Loaned",
      "type": "event"
    },
    {
      "anonymous": false,
      "inputs": [
        {
          "indexed": false,
          "internalType": "uint256",
          "name": "managerFee",
          "type": "uint256"
        }
      ],
      "name": "ManagerFeeSet",
      "type": "event"
    },
    {
      "anonymous": false,
      "inputs": [
        {
          "indexed": true,
          "internalType": "address",
          "name": "to",
          "type": "address"
        },
        {
          "indexed": false,
          "internalType": "uint256",
          "name": "shares",
          "type": "uint256"
        },
        {
          "indexed": false,
          "internalType": "uint256",
          "name": "depositAmount",
          "type": "uint256"
        }
      ],
      "name": "Minted",
      "type": "event"
    },
    {
      "anonymous": false,
      "inputs": [
        {
          "indexed": true,
          "internalType": "address",
          "name": "collection",
          "type": "address"
        },
        {
          "indexed": false,
          "internalType": "uint256",
          "name": "tokenId",
          "type": "uint256"
        },
        {
          "indexed": false,
          "internalType": "uint256",
          "name": "amount",
          "type": "uint256"
        },
        {
          "indexed": false,
          "internalType": "address",
          "name": "recipient",
          "type": "address"
        }
      ],
      "name": "NFTLiquidated",
      "type": "event"
    },
    {
      "anonymous": false,
      "inputs": [
        {
          "indexed": false,
          "internalType": "address",
          "name": "collection",
          "type": "address"
        },
        {
          "indexed": false,
          "internalType": "uint256",
          "name": "tokenId",
          "type": "uint256"
        },
        {
          "indexed": false,
          "internalType": "uint256",
          "name": "lienId",
          "type": "uint256"
        }
      ],
      "name": "NFTSeized",
      "type": "event"
    },
    {
      "anonymous": false,
      "inputs": [
        {
          "indexed": true,
          "internalType": "address",
          "name": "previousManager",
          "type": "address"
        },
        {
          "indexed": true,
          "internalType": "address",
          "name": "newManager",
          "type": "address"
        }
      ],
      "name": "OwnershipTransferred",
      "type": "event"
    },
    {
      "anonymous": false,
      "inputs": [
        {
          "indexed": false,
          "internalType": "address",
          "name": "account",
          "type": "address"
        }
      ],
      "name": "Paused",
      "type": "event"
    },
    {
      "anonymous": false,
      "inputs": [
        {
          "indexed": true,
          "internalType": "address",
          "name": "from",
          "type": "address"
        },
        {
          "indexed": true,
          "internalType": "address",
          "name": "to",
          "type": "address"
        },
        {
          "indexed": false,
          "internalType": "uint256",
          "name": "value",
          "type": "uint256"
        }
      ],
      "name": "Transfer",
      "type": "event"
    },
    {
      "anonymous": false,
      "inputs": [
        {
          "indexed": false,
          "internalType": "address",
          "name": "account",
          "type": "address"
        }
      ],
      "name": "Unpaused",
      "type": "event"
    },
    {
      "anonymous": false,
      "inputs": [
        {
          "indexed": true,
          "internalType": "address",
          "name": "implementation",
          "type": "address"
        }
      ],
      "name": "Upgraded",
      "type": "event"
    },
    {
      "inputs": [],
      "name": "MAX_MANAGER_FEE",
      "outputs": [
        {
          "internalType": "uint256",
          "name": "",
          "type": "uint256"
        }
      ],
      "stateMutability": "view",
      "type": "function"
    },
    {
      "inputs": [],
      "name": "UPGRADE_INTERFACE_VERSION",
      "outputs": [
        {
          "internalType": "string",
          "name": "",
          "type": "string"
        }
      ],
      "stateMutability": "view",
      "type": "function"
    },
    {
      "inputs": [
        {
          "internalType": "address",
          "name": "owner",
          "type": "address"
        },
        {
          "internalType": "address",
          "name": "spender",
          "type": "address"
        }
      ],
      "name": "allowance",
      "outputs": [
        {
          "internalType": "uint256",
          "name": "",
          "type": "uint256"
        }
      ],
      "stateMutability": "view",
      "type": "function"
    },
    {
      "inputs": [
        {
          "internalType": "address",
          "name": "spender",
          "type": "address"
        },
        {
          "internalType": "uint256",
          "name": "value",
          "type": "uint256"
        }
      ],
      "name": "approve",
      "outputs": [
        {
          "internalType": "bool",
          "name": "",
          "type": "bool"
        }
      ],
      "stateMutability": "nonpayable",
      "type": "function"
    },
    {
      "inputs": [
        {
          "internalType": "address",
          "name": "account",
          "type": "address"
        }
      ],
      "name": "balanceOf",
      "outputs": [
        {
          "internalType": "uint256",
          "name": "",
          "type": "uint256"
        }
      ],
      "stateMutability": "view",
      "type": "function"
    },
    {
      "inputs": [],
      "name": "blend",
      "outputs": [
        {
          "internalType": "contract IBlend",
          "name": "",
          "type": "address"
        }
      ],
      "stateMutability": "view",
      "type": "function"
    },
    {
      "inputs": [],
      "name": "blurPool",
      "outputs": [
        {
          "internalType": "contract IBlurPool",
          "name": "",
          "type": "address"
        }
      ],
      "stateMutability": "view",
      "type": "function"
    },
    {
      "inputs": [
        {
          "internalType": "uint256",
          "name": "shares",
          "type": "uint256"
        }
      ],
      "name": "burn",
      "outputs": [
        {
          "internalType": "uint256",
          "name": "withdrawAmount",
          "type": "uint256"
        }
      ],
      "stateMutability": "nonpayable",
      "type": "function"
    },
    {
      "inputs": [],
      "name": "cleanUpLiensArray",
      "outputs": [],
      "stateMutability": "nonpayable",
      "type": "function"
    },
    {
      "inputs": [],
      "name": "collectManagerFee",
      "outputs": [],
      "stateMutability": "nonpayable",
      "type": "function"
    },
    {
      "inputs": [],
      "name": "decimals",
      "outputs": [
        {
          "internalType": "uint8",
          "name": "",
          "type": "uint8"
        }
      ],
      "stateMutability": "view",
      "type": "function"
    },
    {
      "inputs": [],
      "name": "eip712Domain",
      "outputs": [
        {
          "internalType": "bytes1",
          "name": "fields",
          "type": "bytes1"
        },
        {
          "internalType": "string",
          "name": "name",
          "type": "string"
        },
        {
          "internalType": "string",
          "name": "version",
          "type": "string"
        },
        {
          "internalType": "uint256",
          "name": "chainId",
          "type": "uint256"
        },
        {
          "internalType": "address",
          "name": "verifyingContract",
          "type": "address"
        },
        {
          "internalType": "bytes32",
          "name": "salt",
          "type": "bytes32"
        },
        {
          "internalType": "uint256[]",
          "name": "extensions",
          "type": "uint256[]"
        }
      ],
      "stateMutability": "view",
      "type": "function"
    },
    {
      "inputs": [],
      "name": "getCurrentlyOwnedDebt",
      "outputs": [
        {
          "internalType": "uint256",
          "name": "ownedDebt",
          "type": "uint256"
        }
      ],
      "stateMutability": "view",
      "type": "function"
    },
    {
      "inputs": [
        {
          "internalType": "uint256",
          "name": "from",
          "type": "uint256"
        },
        {
          "internalType": "uint256",
          "name": "to",
          "type": "uint256"
        }
      ],
      "name": "getLiensByIndex",
      "outputs": [
        {
          "components": [
            {
              "components": [
                {
                  "internalType": "address",
                  "name": "lender",
                  "type": "address"
                },
                {
                  "internalType": "address",
                  "name": "borrower",
                  "type": "address"
                },
                {
                  "internalType": "contract ERC721",
                  "name": "collection",
                  "type": "address"
                },
                {
                  "internalType": "uint256",
                  "name": "tokenId",
                  "type": "uint256"
                },
                {
                  "internalType": "uint256",
                  "name": "amount",
                  "type": "uint256"
                },
                {
                  "internalType": "uint256",
                  "name": "startTime",
                  "type": "uint256"
                },
                {
                  "internalType": "uint256",
                  "name": "rate",
                  "type": "uint256"
                },
                {
                  "internalType": "uint256",
                  "name": "auctionStartBlock",
                  "type": "uint256"
                },
                {
                  "internalType": "uint256",
                  "name": "auctionDuration",
                  "type": "uint256"
                }
              ],
              "internalType": "struct Lien",
              "name": "lien",
              "type": "tuple"
            },
            {
              "internalType": "uint256",
              "name": "lienId",
              "type": "uint256"
            }
          ],
          "internalType": "struct DataTypes.LienData[]",
          "name": "liensData",
          "type": "tuple[]"
        }
      ],
      "stateMutability": "view",
      "type": "function"
    },
    {
      "inputs": [],
      "name": "getUnderlyingBalance",
      "outputs": [
        {
          "internalType": "uint256",
          "name": "",
          "type": "uint256"
        }
      ],
      "stateMutability": "view",
      "type": "function"
    },
    {
      "inputs": [
        {
          "internalType": "bytes",
          "name": "data",
          "type": "bytes"
        }
      ],
      "name": "initialize",
      "outputs": [],
      "stateMutability": "nonpayable",
      "type": "function"
    },
    {
      "inputs": [],
      "name": "liensCount",
      "outputs": [
        {
          "internalType": "uint256",
          "name": "",
          "type": "uint256"
        }
      ],
      "stateMutability": "view",
      "type": "function"
    },
    {
      "inputs": [
        {
          "internalType": "address",
          "name": "collection",
          "type": "address"
        },
        {
          "internalType": "uint256",
          "name": "tokenId",
          "type": "uint256"
        },
        {
          "internalType": "uint256",
          "name": "amount",
          "type": "uint256"
        },
        {
          "internalType": "address",
          "name": "recipient",
          "type": "address"
        },
        {
          "internalType": "uint256",
          "name": "deadline",
          "type": "uint256"
        },
        {
          "internalType": "bytes",
          "name": "signature",
          "type": "bytes"
        }
      ],
      "name": "liquidateNFT",
      "outputs": [],
      "stateMutability": "payable",
      "type": "function"
    },
    {
      "inputs": [],
      "name": "manager",
      "outputs": [
        {
          "internalType": "address",
          "name": "",
          "type": "address"
        }
      ],
      "stateMutability": "view",
      "type": "function"
    },
    {
      "inputs": [],
      "name": "managerFee",
      "outputs": [
        {
          "internalType": "uint256",
          "name": "",
          "type": "uint256"
        }
      ],
      "stateMutability": "view",
      "type": "function"
    },
    {
      "inputs": [
        {
          "internalType": "uint256",
          "name": "amount",
          "type": "uint256"
        }
      ],
      "name": "mint",
      "outputs": [
        {
          "internalType": "uint256",
          "name": "shares",
          "type": "uint256"
        }
      ],
      "stateMutability": "payable",
      "type": "function"
    },
    {
      "inputs": [],
      "name": "name",
      "outputs": [
        {
          "internalType": "string",
          "name": "",
          "type": "string"
        }
      ],
      "stateMutability": "view",
      "type": "function"
    },
    {
      "inputs": [
        {
          "internalType": "address",
          "name": "owner",
          "type": "address"
        }
      ],
      "name": "nonces",
      "outputs": [
        {
          "internalType": "uint256",
          "name": "",
          "type": "uint256"
        }
      ],
      "stateMutability": "view",
      "type": "function"
    },
    {
      "inputs": [
        {
          "internalType": "address",
          "name": "",
          "type": "address"
        },
        {
          "internalType": "address",
          "name": "",
          "type": "address"
        },
        {
          "internalType": "uint256",
          "name": "",
          "type": "uint256"
        },
        {
          "internalType": "bytes",
          "name": "",
          "type": "bytes"
        }
      ],
      "name": "onERC721Received",
      "outputs": [
        {
          "internalType": "bytes4",
          "name": "",
          "type": "bytes4"
        }
      ],
      "stateMutability": "pure",
      "type": "function"
    },
    {
      "inputs": [],
      "name": "paused",
      "outputs": [
        {
          "internalType": "bool",
          "name": "",
          "type": "bool"
        }
      ],
      "stateMutability": "view",
      "type": "function"
    },
    {
      "inputs": [],
      "name": "proxiableUUID",
      "outputs": [
        {
          "internalType": "bytes32",
          "name": "",
          "type": "bytes32"
        }
      ],
      "stateMutability": "view",
      "type": "function"
    },
    {
      "inputs": [
        {
          "components": [
            {
              "internalType": "address",
              "name": "lender",
              "type": "address"
            },
            {
              "internalType": "address",
              "name": "borrower",
              "type": "address"
            },
            {
              "internalType": "contract ERC721",
              "name": "collection",
              "type": "address"
            },
            {
              "internalType": "uint256",
              "name": "tokenId",
              "type": "uint256"
            },
            {
              "internalType": "uint256",
              "name": "amount",
              "type": "uint256"
            },
            {
              "internalType": "uint256",
              "name": "startTime",
              "type": "uint256"
            },
            {
              "internalType": "uint256",
              "name": "rate",
              "type": "uint256"
            },
            {
              "internalType": "uint256",
              "name": "auctionStartBlock",
              "type": "uint256"
            },
            {
              "internalType": "uint256",
              "name": "auctionDuration",
              "type": "uint256"
            }
          ],
          "internalType": "struct Lien",
          "name": "lien",
          "type": "tuple"
        },
        {
          "internalType": "uint256",
          "name": "lienId",
          "type": "uint256"
        },
        {
          "internalType": "uint256",
          "name": "rate",
          "type": "uint256"
        }
      ],
      "name": "refinanceAuction",
      "outputs": [],
      "stateMutability": "nonpayable",
      "type": "function"
    },
    {
      "inputs": [],
      "name": "renounceOwnership",
      "outputs": [],
      "stateMutability": "nonpayable",
      "type": "function"
    },
    {
      "inputs": [
        {
          "components": [
            {
              "components": [
                {
                  "internalType": "address",
                  "name": "lender",
                  "type": "address"
                },
                {
                  "internalType": "address",
                  "name": "borrower",
                  "type": "address"
                },
                {
                  "internalType": "contract ERC721",
                  "name": "collection",
                  "type": "address"
                },
                {
                  "internalType": "uint256",
                  "name": "tokenId",
                  "type": "uint256"
                },
                {
                  "internalType": "uint256",
                  "name": "amount",
                  "type": "uint256"
                },
                {
                  "internalType": "uint256",
                  "name": "startTime",
                  "type": "uint256"
                },
                {
                  "internalType": "uint256",
                  "name": "rate",
                  "type": "uint256"
                },
                {
                  "internalType": "uint256",
                  "name": "auctionStartBlock",
                  "type": "uint256"
                },
                {
                  "internalType": "uint256",
                  "name": "auctionDuration",
                  "type": "uint256"
                }
              ],
              "internalType": "struct Lien",
              "name": "lien",
              "type": "tuple"
            },
            {
              "internalType": "uint256",
              "name": "lienId",
              "type": "uint256"
            }
          ],
          "internalType": "struct LienPointer[]",
          "name": "lienPointers",
          "type": "tuple[]"
        }
      ],
      "name": "seize",
      "outputs": [],
      "stateMutability": "nonpayable",
      "type": "function"
    },
    {
      "inputs": [
        {
          "internalType": "uint256",
          "name": "managerFee",
          "type": "uint256"
        }
      ],
      "name": "setManagerFee",
      "outputs": [],
      "stateMutability": "nonpayable",
      "type": "function"
    },
    {
      "inputs": [
        {
          "components": [
            {
              "internalType": "address",
              "name": "lender",
              "type": "address"
            },
            {
              "internalType": "address",
              "name": "borrower",
              "type": "address"
            },
            {
              "internalType": "contract ERC721",
              "name": "collection",
              "type": "address"
            },
            {
              "internalType": "uint256",
              "name": "tokenId",
              "type": "uint256"
            },
            {
              "internalType": "uint256",
              "name": "amount",
              "type": "uint256"
            },
            {
              "internalType": "uint256",
              "name": "startTime",
              "type": "uint256"
            },
            {
              "internalType": "uint256",
              "name": "rate",
              "type": "uint256"
            },
            {
              "internalType": "uint256",
              "name": "auctionStartBlock",
              "type": "uint256"
            },
            {
              "internalType": "uint256",
              "name": "auctionDuration",
              "type": "uint256"
            }
          ],
          "internalType": "struct Lien",
          "name": "lien",
          "type": "tuple"
        },
        {
          "internalType": "uint256",
          "name": "lienId",
          "type": "uint256"
        }
      ],
      "name": "startAuction",
      "outputs": [],
      "stateMutability": "nonpayable",
      "type": "function"
    },
    {
      "inputs": [],
      "name": "symbol",
      "outputs": [
        {
          "internalType": "string",
          "name": "",
          "type": "string"
        }
      ],
      "stateMutability": "view",
      "type": "function"
    },
    {
      "inputs": [],
      "name": "totalSupply",
      "outputs": [
        {
          "internalType": "uint256",
          "name": "",
          "type": "uint256"
        }
      ],
      "stateMutability": "view",
      "type": "function"
    },
    {
      "inputs": [
        {
          "internalType": "address",
          "name": "to",
          "type": "address"
        },
        {
          "internalType": "uint256",
          "name": "value",
          "type": "uint256"
        }
      ],
      "name": "transfer",
      "outputs": [
        {
          "internalType": "bool",
          "name": "",
          "type": "bool"
        }
      ],
      "stateMutability": "nonpayable",
      "type": "function"
    },
    {
      "inputs": [
        {
          "internalType": "address",
          "name": "from",
          "type": "address"
        },
        {
          "internalType": "address",
          "name": "to",
          "type": "address"
        },
        {
          "internalType": "uint256",
          "name": "value",
          "type": "uint256"
        }
      ],
      "name": "transferFrom",
      "outputs": [
        {
          "internalType": "bool",
          "name": "",
          "type": "bool"
        }
      ],
      "stateMutability": "nonpayable",
      "type": "function"
    },
    {
      "inputs": [
        {
          "internalType": "address",
          "name": "newManager",
          "type": "address"
        }
      ],
      "name": "transferOwnership",
      "outputs": [],
      "stateMutability": "nonpayable",
      "type": "function"
    },
    {
      "inputs": [
        {
          "internalType": "address",
          "name": "newImplementation",
          "type": "address"
        },
        {
          "internalType": "bytes",
          "name": "data",
          "type": "bytes"
        }
      ],
      "name": "upgradeToAndCall",
      "outputs": [],
      "stateMutability": "payable",
      "type": "function"
    },
    {
      "stateMutability": "payable",
      "type": "receive"
    }
  ],
  "bytecode": "0x60a060405230608052348015610013575f80fd5b50608051613d8861003a5f395f818161254d0152818161257601526126b50152613d885ff3fe608060405260043610610215575f3560e01c80635c975abb1161011e578063a0712d68116100a8578063ca5e4afe1161006d578063ca5e4afe14610623578063dd62ed3e14610640578063e2c674391461065f578063f217c92914610673578063f2fde38b14610692575f80fd5b8063a0712d681461058e578063a2609a59146105a1578063a49c04be146105b5578063a9059cbb146105d4578063ad3cb1cc146105f3575f80fd5b80637aef8c05116100ee5780637aef8c05146105035780637ecebe001461052057806384b0196e1461053f57806395d89b41146105665780639c7632fc1461057a575f80fd5b80635c975abb1461047b5780635e05b33c146104b157806370a08231146104d0578063715018a6146104ef575f80fd5b806342966c681161019f5780634f1ef2861161016f5780634f1ef2861461040c5780635265019b1461041f57806352d1902d146104345780635b43226f146104485780635bff9b1014610467575f80fd5b806342966c6814610372578063439fab9114610391578063481c6a75146103b05780634ec1e3b2146103e0575f80fd5b80631ea3ccdc116101e55780631ea3ccdc146102fd578063200f54f61461031057806323b872dd146103245780632e02b40c14610343578063313ce56714610357575f80fd5b806306fdde0314610236578063095ea7b314610260578063150b7a021461028f57806318160ddd146102d3575f80fd5b36610232576032546001600160a01b03163314610230575f80fd5b005b5f80fd5b348015610241575f80fd5b5061024a6106b1565b6040516102579190613191565b60405180910390f35b34801561026b575f80fd5b5061027f61027a3660046131c2565b610756565b6040519015158152602001610257565b34801561029a575f80fd5b506102ba6102a9366004613230565b630a85bd0160e11b95945050505050565b6040516001600160e01b03199091168152602001610257565b3480156102de575f80fd5b505f80516020613cd3833981519152545b604051908152602001610257565b61023061030b36600461329d565b61076f565b34801561031b575f80fd5b50610230610a7a565b34801561032f575f80fd5b5061027f61033e36600461331c565b610d92565b34801561034e575f80fd5b506102ef610db7565b348015610362575f80fd5b5060405160128152602001610257565b34801561037d575f80fd5b506102ef61038c36600461335a565b610fba565b34801561039c575f80fd5b506102306103ab366004613456565b6111b1565b3480156103bb575f80fd5b505f546001600160a01b03165b6040516001600160a01b039091168152602001610257565b3480156103eb575f80fd5b506103ff6103fa36600461348f565b61141f565b6040516102579190613517565b61023061041a36600461356f565b611570565b34801561042a575f80fd5b506102ef6103e881565b34801561043f575f80fd5b506102ef61158f565b348015610453575f80fd5b506102306104623660046135bb565b6115aa565b348015610472575f80fd5b506034546102ef565b348015610486575f80fd5b507fcd5ed15c6e187e77e9aee88184c21f4f2182ab5827cb3b7e07fbedcd63f033005460ff1661027f565b3480156104bc575f80fd5b506102306104cb366004613641565b6116ce565b3480156104db575f80fd5b506102ef6104ea36600461366c565b6118ab565b3480156104fa575f80fd5b506102306118db565b34801561050e575f80fd5b506032546001600160a01b03166103c8565b34801561052b575f80fd5b506102ef61053a36600461366c565b6118ee565b34801561054a575f80fd5b50610553611916565b6040516102579796959493929190613687565b348015610571575f80fd5b5061024a6119bf565b348015610585575f80fd5b506036546102ef565b6102ef61059c36600461335a565b6119fd565b3480156105ac575f80fd5b50610230611b43565b3480156105c0575f80fd5b506102306105cf36600461371b565b611b65565b3480156105df575f80fd5b5061027f6105ee3660046131c2565b612084565b3480156105fe575f80fd5b5061024a604051806040016040528060058152602001640352e302e360dc1b81525081565b34801561062e575f80fd5b506033546001600160a01b03166103c8565b34801561064b575f80fd5b506102ef61065a36600461374f565b612091565b34801561066a575f80fd5b506102ef6120da565b34801561067e575f80fd5b5061023061068d36600461335a565b61215c565b34801561069d575f80fd5b506102306106ac36600461366c565b612170565b60605f5f80516020613cb38339815191525b90508060030180546106d490613786565b80601f016020809104026020016040519081016040528092919081815260200182805461070090613786565b801561074b5780601f106107225761010080835404028352916020019161074b565b820191905f5260205f20905b81548152906001019060200180831161072e57829003601f168201915b505050505091505090565b5f336107638185856121e8565b60019150505b92915050565b84158061077b57503485115b156107a1576040516301ab3e6360e01b8152600481018690526024015b60405180910390fd5b6001600160a01b0384166107d357604051630bc2c5df60e11b81526001600160a01b0385166004820152602401610798565b824211156107f75760405163d0ed113960e01b815260048101849052602401610798565b5f6108c37f7292e72ee08b090f7e9b8bba626669a0f73df35cf9c9971d79867d6e70bb905789898989610865336001600160a01b03165f9081527f5ab42ced628888259c08ac98db1eb0cf702fc1501344311d8b100cd1bfe4bb006020526040902080546001810190915590565b6040805160208101979097526001600160a01b03958616908701526060860193909352608085019190915290911660a083015260c082015260e0810186905261010001604051602081830303815290604052805190602001206121f5565b90506108d65f546001600160a01b031690565b6001600160a01b031661091e8285858080601f0160208091040260200160405190810160405280939291908181526020018383808284375f9201919091525061222192505050565b6001600160a01b0316146109495782826040516302adfdc360e41b81526004016107989291906137b8565b6040516323b872dd60e01b81523060048201526001600160a01b038681166024830152604482018990528916906323b872dd906064015f604051808303815f87803b158015610996575f80fd5b505af11580156109a8573d5f803e3d5ffd5b505060325460408051630d0e30db60e41b815290516001600160a01b03909216935063d0e30db0925089916004808301925f92919082900301818588803b1580156109f1575f80fd5b505af1158015610a03573d5f803e3d5ffd5b505050505034861115610a2357610a2333610a1e34896137fa565b612249565b60408051888152602081018890526001600160a01b03878116828401529151918a16917fe24d3413c8084c68555e1ab9bd7ffa150cb48291301b52d9a0cf064622b3f3f39181900360600190a25050505050505050565b6033546034546001600160a01b03909116905f5b81811015610d8d575f60326002018281548110610aad57610aad61380d565b5f9182526020918290206040805161016081018252600a90930290910180546001600160a01b039081169284019283526001820154811660608501526002820154166080840152600381015460a0840152600481015460c0840152600581015460e084015260068101546101008401526007810154610120840152600881015461014084015281835260090154928201929092529150610b4c906122dc565b602082015160405163631fb02960e11b815260048101919091526001600160a01b0386169063c63f605290602401602060405180830381865afa158015610b95573d5f803e3d5ffd5b505050506040513d601f19601f82011682018060405250810190610bb99190613821565b14610d84576034610bcb6001856137fa565b81548110610bdb57610bdb61380d565b905f5260205f2090600a020160326002018381548110610bfd57610bfd61380d565b5f91825260209091208254600a9092020180546001600160a01b039283166001600160a01b031991821617825560018085015490830180549185169183169190911790556002808501549083018054919094169116179091556003808301549082015560048083015490820155600580830154908201556006808301549082015560078083015490820155600880830154908201556009918201549101556034805480610cac57610cac613838565b5f82815260208120600a5f199093019283020180546001600160a01b0319908116825560018281018054831690556002830180549092169091556003820183905560048201839055600582018390556006820183905560078201839055600882018390556009909101919091559155610d2590846137fa565b8214610d7157610d3682600161384c565b603480546035915f9186908110610d4f57610d4f61380d565b905f5260205f2090600a02016009015481526020019081526020015f20819055505b82610d7b8161385f565b93505050610a8e565b50600101610a8e565b505050565b5f33610d9f85828561230b565b610daa85858561235b565b60019150505b9392505050565b6033546034545f916001600160a01b031690825b81811015610fb4575f60326002018281548110610dea57610dea61380d565b5f9182526020918290206040805161016081018252600a90930290910180546001600160a01b039081169284019283526001820154811660608501526002820154166080840152600381015460a0840152600481015460c0840152600581015460e084015260068101546101008401526007810154610120840152600881015461014084015281835260090154928201929092529150610e89906122dc565b602082015160405163631fb02960e11b815260048101919091526001600160a01b0386169063c63f605290602401602060405180830381865afa158015610ed2573d5f803e3d5ffd5b505050506040513d601f19601f82011682018060405250810190610ef69190613821565b03610fa1578051608081015160c082015160a09092015160405163036e164f60e31b815273__$fbffd4d4897a9538a3ed72a5647e369d05$__93631b70b27893610f559390926004019283526020830191909152604082015260600190565b602060405180830381865af4158015610f70573d5f803e3d5ffd5b505050506040513d601f19601f82011682018060405250810190610f949190613821565b610f9e908661384c565b94505b5080610fac81613874565b915050610dcb565b50505090565b5f610fc36123b8565b815f03610fe3576040516325ee753160e21b815260040160405180910390fd5b81610fed336118ab565b101561100c576040516324aa779360e21b815260040160405180910390fd5b5f80516020613cd383398151915254826110246120da565b61102e919061388c565b61103891906138b7565b6032546040516370a0823160e01b81523060048201529192506001600160a01b031690829082906370a0823190602401602060405180830381865afa158015611083573d5f803e3d5ffd5b505050506040513d601f19601f820116820180604052508101906110a79190613821565b10156110c6576040516314ecd6c760e01b815260040160405180910390fd5b6110d033846123ef565b603254604051632e1a7d4d60e01b8152600481018490526001600160a01b0390911690632e1a7d4d906024015f604051808303815f87803b158015611113575f80fd5b505af1158015611125573d5f803e3d5ffd5b5050603654612710925061113a91508461388c565b61114491906138b7565b61114e90836137fa565b915061115a3383612249565b604080518481526020810184905233917f23ff0e75edf108e3d0392d92e13e8c8a868ef19001bd49f9e94876dc46dff87f910160405180910390a2506111ac60015f80516020613d3383398151915255565b919050565b7ff0c57e16840df040f15088dc2f81fe391c3923bec73e23a9662efc9c229c6a008054600160401b810460ff1615906001600160401b03165f811580156111f55750825b90505f826001600160401b031660011480156112105750303b155b90508115801561121e575080155b1561123c5760405163f92ee8a960e01b815260040160405180910390fd5b845467ffffffffffffffff19166001178555831561126657845460ff60401b1916600160401b1785555b5f805f805f8a80602001905181019061127f9190613918565b9398509196509450925090506001600160a01b0385166112b257604051636ba0d85d60e11b815260040160405180910390fd5b6001600160a01b0384166112d957604051633902f9dd60e01b815260040160405180910390fd5b6001600160a01b0383166113005760405163e00d415960e01b815260040160405180910390fd5b611308612436565b61131061243e565b61131861244e565b611322828261245e565b61132a612470565b6113826040518060400160405280601d81526020017f68747470733a2f2f6170702e72616e676570726f746f636f6c2e636f6d000000815250604051806040016040528060018152602001603160f81b815250612480565b61138a612436565b61139385612492565b603280546001600160a01b038087166001600160a01b03199283161790925560338054928616929091169190911790556113cc5f6124e1565b5050505050831561141757845460ff60401b19168555604051600181527fc7f505b2f371ae2175ee4913f4499e1f2633a7b5936321eed1cdaeb6115181d29060200160405180910390a15b505050505050565b606061142b83836137fa565b6001600160401b0381111561144257611442613371565b60405190808252806020026020018201604052801561147b57816020015b6114686130cc565b8152602001906001900390816114605790505b509050825b8281101561156957603480548290811061149c5761149c61380d565b5f9182526020918290206040805161016081018252600a90930290910180546001600160a01b039081169284019283526001820154811660608501526002820154166080840152600381015460a0840152600481015460c0840152600581015460e084015260068101546101008401526007810154610120840152600881015461014084015290825260090154918101919091528261153b86846137fa565b8151811061154b5761154b61380d565b6020026020010181905250808061156190613874565b915050611480565b5092915050565b611578612542565b611581826125e6565b61158b82826125ee565b5050565b5f6115986126aa565b505f80516020613d1383398151915290565b6115b26126f3565b603354604051635b43226f60e01b81526001600160a01b0390911690635b43226f906115e49085908590600401613a3a565b5f604051808303815f87803b1580156115fb575f80fd5b505af115801561160d573d5f803e3d5ffd5b505050505f5b81811015610d8d577f4267b7f89bb2e2e5dd130a973d020ba15c8087112a42f2057abafcb7a0ab8c4b83838381811061164e5761164e61380d565b61166892606061014090920201908101915060400161366c565b84848481811061167a5761167a61380d565b905061014002015f01606001358585858181106116995761169961380d565b9050610140020161012001356040516116b493929190613a86565b60405180910390a1806116c681613874565b915050611613565b6116d66126f3565b5f818152603560205260408120546116f0906001906137fa565b905061170961170436859003850185613aa7565b6122dc565b6117ab603260020183815481106117225761172261380d565b5f9182526020918290206040805161012081018252600a90930290910180546001600160a01b03908116845260018201548116948401949094526002810154909316908201526003820154606082015260048201546080820152600582015460a0820152600682015460c0820152600782015460e08201526008909101546101008201526122dc565b146117cd5782826040516307b8938f60e41b8152600401610798929190613b35565b43603260020182815481106117e4576117e461380d565b5f91825260209091206007600a9092020101556033546040516317816ccf60e21b81526001600160a01b0390911690635e05b33c906118299086908690600401613b35565b5f604051808303815f87803b158015611840575f80fd5b505af1158015611852573d5f803e3d5ffd5b507f92db7303de5c78e58e4570f0b4acf392e3dac09394e96c4fa62b323b6337ee659250611889915050606085016040860161366c565b84606001358460405161189e93929190613a86565b60405180910390a1505050565b5f805f80516020613cb38339815191525b6001600160a01b039093165f9081526020939093525050604090205490565b6118e36126f3565b6118ec5f612492565b565b5f807f5ab42ced628888259c08ac98db1eb0cf702fc1501344311d8b100cd1bfe4bb006118bc565b5f60608082808083815f80516020613cf3833981519152805490915015801561194157506001810154155b6119855760405162461bcd60e51b81526020600482015260156024820152741152540dcc4c8e88155b9a5b9a5d1a585b1a5e9959605a1b6044820152606401610798565b61198d612757565b611995612795565b604080515f80825260208201909252600f60f81b9c939b5091995046985030975095509350915050565b7f52c63247e1f47db19d5ce0460030c497f067ca4cebf71ba98eeadabe20bace0480546060915f80516020613cb3833981519152916106d490613786565b5f611a066123b8565b811580611a1257503482115b15611a33576040516301ab3e6360e01b815260048101839052602401610798565b5f80516020613cd3833981519152545f03611a4e5781611a74565b611a7482611a675f80516020613cd38339815191525490565b611a6f6120da565b6127ab565b9050611a8033826127f0565b60325460408051630d0e30db60e41b815290516001600160a01b039092169163d0e30db09185916004808301925f92919082900301818588803b158015611ac5575f80fd5b505af1158015611ad7573d5f803e3d5ffd5b505050505034821115611af257611af233610a1e34856137fa565b604080518281526020810184905233917f25b428dfde728ccfaddad7e29e4ac23c24ed7fd1a6e3e3f91894a9a073f5dfff910160405180910390a26111ac60015f80516020613d3383398151915255565b611b4b6126f3565b6118ec611b5f5f546001600160a01b031690565b47612249565b611b6d6126f3565b60325460405163036e164f60e31b81526080850135600482015260c0850135602482015260a085013560448201526001600160a01b03909116905f9073__$fbffd4d4897a9538a3ed72a5647e369d05$__90631b70b27890606401602060405180830381865af4158015611be3573d5f803e3d5ffd5b505050506040513d601f19601f82011682018060405250810190611c079190613821565b6040516370a0823160e01b81523060048201529091506001600160a01b038316906370a0823190602401602060405180830381865afa158015611c4c573d5f803e3d5ffd5b505050506040513d601f19601f82011682018060405250810190611c709190613821565b811115611c90576040516314ecd6c760e01b815260040160405180910390fd5b6040805161016081018252308183019081525f928291906060830190611cbb908b0160208c0161366c565b6001600160a01b03168152602001611cd960608b0160408c0161366c565b6001600160a01b03168152602001896060013581526020018581526020014281526020018781526020015f81526020018961010001358152508152602001868152509050603260020181908060018154018082558091505060019003905f5260205f2090600a02015f909190919091505f820151815f015f820151815f015f6101000a8154816001600160a01b0302191690836001600160a01b031602179055506020820151816001015f6101000a8154816001600160a01b0302191690836001600160a01b031602179055506040820151816002015f6101000a8154816001600160a01b0302191690836001600160a01b03160217905550606082015181600301556080820151816004015560a0820151816005015560c0820151816006015560e082015181600701556101008201518160080155505060208201518160090155505060326002018054905060326003015f8781526020019081526020015f20819055505f836001600160a01b03166370a08231306040518263ffffffff1660e01b8152600401611e7a91906001600160a01b0391909116815260200190565b602060405180830381865afa158015611e95573d5f803e3d5ffd5b505050506040513d601f19601f82011682018060405250810190611eb99190613821565b60335460405163524e025f60e11b81529192506001600160a01b03169063a49c04be90611eee908a908a908a90600401613b52565b5f604051808303815f87803b158015611f05575f80fd5b505af1158015611f17573d5f803e3d5ffd5b50506040516370a0823160e01b81523060048201528392508591506001600160a01b038716906370a0823190602401602060405180830381865afa158015611f61573d5f803e3d5ffd5b505050506040513d601f19601f82011682018060405250810190611f859190613821565b611f8f919061384c565b1015611fae57604051637b46c38960e11b815260040160405180910390fd5b8151611fb9906122dc565b60335460405163631fb02960e11b8152600481018990526001600160a01b039091169063c63f605290602401602060405180830381865afa158015612000573d5f803e3d5ffd5b505050506040513d601f19601f820116820180604052508101906120249190613821565b1461204257604051630e6a904b60e01b815260040160405180910390fd5b60408051878152602081018590527f57529235d42dc1daa6e5fa9e9182c6e3a6eed1db72665e80db2167b8e10504ea910160405180910390a150505050505050565b5f3361076381858561235b565b6001600160a01b039182165f9081527f52c63247e1f47db19d5ce0460030c497f067ca4cebf71ba98eeadabe20bace016020908152604080832093909416825291909152205490565b5f6120e3610db7565b6032546040516370a0823160e01b81523060048201526001600160a01b03909116906370a0823190602401602060405180830381865afa158015612129573d5f803e3d5ffd5b505050506040513d601f19601f8201168201806040525081019061214d9190613821565b612157919061384c565b905090565b6121646126f3565b61216d816124e1565b50565b6121786126f3565b6001600160a01b0381166121df5760405162461bcd60e51b815260206004820152602860248201527f4f776e61626c653a206e6577206d616e6167657220697320746865207a65726f604482015267206164647265737360c01b6064820152608401610798565b61216d81612492565b610d8d8383836001612824565b5f610769612201612908565b8360405161190160f01b8152600281019290925260228201526042902090565b5f805f8061222f8686612911565b92509250925061223f828261295a565b5090949350505050565b8047101561226c5760405163cd78605960e01b8152306004820152602401610798565b5f826001600160a01b0316826040515f6040518083038185875af1925050503d805f81146122b5576040519150601f19603f3d011682016040523d82523d5f602084013e6122ba565b606091505b5050905080610d8d57604051630a12f52160e11b815260040160405180910390fd5b5f816040516020016122ee9190613b74565b604051602081830303815290604052805190602001209050919050565b5f6123168484612091565b90505f198114612355578181101561234757828183604051637dc7a0d960e11b815260040161079893929190613a86565b61235584848484035f612824565b50505050565b6001600160a01b03831661238457604051634b637e8f60e11b81525f6004820152602401610798565b6001600160a01b0382166123ad5760405163ec442f0560e01b81525f6004820152602401610798565b610d8d838383612a12565b5f80516020613d338339815191528054600119016123e957604051633ee5aeb560e01b815260040160405180910390fd5b60029055565b6001600160a01b03821661241857604051634b637e8f60e11b81525f6004820152602401610798565b61158b825f83612a12565b60015f80516020613d3383398151915255565b6118ec612b38565b612446612b38565b6118ec612b81565b612456612b38565b6118ec612b89565b612466612b38565b61158b8282612b9a565b612478612b38565b6118ec612bea565b612488612b38565b61158b8282612c1d565b5f80546001600160a01b038381166001600160a01b0319831681178455604051919092169283917f8be0079c531659141344cd1fd0a4f28419497f9722a3daafe3b4186f6b6457e09190a35050565b6103e8811115612507576040516309da0db160e31b815260048101829052602401610798565b60368190556040518181527f4de90ec86e1bc56c192e2399bacbd10bdaba720caca606354d66c5cb33d6802b9060200160405180910390a150565b306001600160a01b037f00000000000000000000000000000000000000000000000000000000000000001614806125c857507f00000000000000000000000000000000000000000000000000000000000000006001600160a01b03166125bc5f80516020613d13833981519152546001600160a01b031690565b6001600160a01b031614155b156118ec5760405163703e46dd60e11b815260040160405180910390fd5b61216d6126f3565b816001600160a01b03166352d1902d6040518163ffffffff1660e01b8152600401602060405180830381865afa925050508015612648575060408051601f3d908101601f1916820190925261264591810190613821565b60015b61267057604051634c9c8ce360e01b81526001600160a01b0383166004820152602401610798565b5f80516020613d1383398151915281146126a057604051632a87526960e21b815260048101829052602401610798565b610d8d8383612c7c565b306001600160a01b037f000000000000000000000000000000000000000000000000000000000000000016146118ec5760405163703e46dd60e11b815260040160405180910390fd5b5f546001600160a01b031633146118ec5760405162461bcd60e51b815260206004820152602260248201527f4f776e61626c653a2063616c6c6572206973206e6f7420746865206d616e616760448201526132b960f11b6064820152608401610798565b7fa16a46d94261c7517cc8ff89f61c0ce93598e3c849801011dee649a6a557d10280546060915f80516020613cf3833981519152916106d490613786565b60605f5f80516020613cf38339815191526106c3565b5f6127b7848484612cd1565b90505f82806127c8576127c86138a3565b8486091115610db0575f1981106127dd575f80fd5b806127e781613874565b95945050505050565b6001600160a01b0382166128195760405163ec442f0560e01b81525f6004820152602401610798565b61158b5f8383612a12565b5f80516020613cb38339815191526001600160a01b03851661285b5760405163e602df0560e01b81525f6004820152602401610798565b6001600160a01b03841661288457604051634a1406b160e11b81525f6004820152602401610798565b6001600160a01b038086165f9081526001830160209081526040808320938816835292905220839055811561290157836001600160a01b0316856001600160a01b03167f8c5be1e5ebec7d5bd14f71427d1e84f3dd0314c0f7b2291e5b200ac8c7c3b925856040516128f891815260200190565b60405180910390a35b5050505050565b5f612157612d77565b5f805f8351604103612948576020840151604085015160608601515f1a61293a88828585612dea565b955095509550505050612953565b505081515f91506002905b9250925092565b5f82600381111561296d5761296d613b83565b03612976575050565b600182600381111561298a5761298a613b83565b036129a85760405163f645eedf60e01b815260040160405180910390fd5b60028260038111156129bc576129bc613b83565b036129dd5760405163fce698f760e01b815260048101829052602401610798565b60038260038111156129f1576129f1613b83565b0361158b576040516335e2f38360e21b815260048101829052602401610798565b5f80516020613cb38339815191526001600160a01b038416612a4c5781816002015f828254612a41919061384c565b90915550612aa99050565b6001600160a01b0384165f9081526020829052604090205482811015612a8b5784818460405163391434e360e21b815260040161079893929190613a86565b6001600160a01b0385165f9081526020839052604090209083900390555b6001600160a01b038316612ac7576002810180548390039055612ae5565b6001600160a01b0383165f9081526020829052604090208054830190555b826001600160a01b0316846001600160a01b03167fddf252ad1be2c89b69c2b068fc378daa952ba7f163c4a11628f55a4df523b3ef84604051612b2a91815260200190565b60405180910390a350505050565b7ff0c57e16840df040f15088dc2f81fe391c3923bec73e23a9662efc9c229c6a0054600160401b900460ff166118ec57604051631afcd79f60e31b815260040160405180910390fd5b612423612b38565b612b91612b38565b6118ec33612492565b612ba2612b38565b5f80516020613cb38339815191527f52c63247e1f47db19d5ce0460030c497f067ca4cebf71ba98eeadabe20bace03612bdb8482613bdc565b50600481016123558382613bdc565b612bf2612b38565b7fcd5ed15c6e187e77e9aee88184c21f4f2182ab5827cb3b7e07fbedcd63f03300805460ff19169055565b612c25612b38565b5f80516020613cf38339815191527fa16a46d94261c7517cc8ff89f61c0ce93598e3c849801011dee649a6a557d102612c5e8482613bdc565b5060038101612c6d8382613bdc565b505f8082556001909101555050565b612c8582612eb2565b6040516001600160a01b038316907fbc7cd75a20ee27fd9adebab32041f755214dbc6bffa90cc0225b39da2e5c2d3b905f90a2805115612cc957610d8d8282612f15565b61158b612f7e565b5f80805f19858709858702925082811083820303915050805f03612d05575f8411612cfa575f80fd5b508290049050610db0565b808411612d10575f80fd5b5f8486880960026001871981018816978890046003810283188082028403028082028403028082028403028082028403028082028403029081029092039091025f889003889004909101858311909403939093029303949094049190911702949350505050565b5f7f8b73c3c69bb8fe3d512ecc4cf759cc79239f7b179b0ffacaa9a75d522b39400f612da1612f9d565b612da9613005565b60408051602081019490945283019190915260608201524660808201523060a082015260c00160405160208183030381529060405280519060200120905090565b5f80807f7fffffffffffffffffffffffffffffff5d576e7357a4501ddfe92f46681b20a0841115612e2357505f91506003905082612ea8565b604080515f808252602082018084528a905260ff891692820192909252606081018790526080810186905260019060a0016020604051602081039080840390855afa158015612e74573d5f803e3d5ffd5b5050604051601f1901519150506001600160a01b038116612e9f57505f925060019150829050612ea8565b92505f91508190505b9450945094915050565b806001600160a01b03163b5f03612ee757604051634c9c8ce360e01b81526001600160a01b0382166004820152602401610798565b5f80516020613d1383398151915280546001600160a01b0319166001600160a01b0392909216919091179055565b60605f80846001600160a01b031684604051612f319190613c97565b5f60405180830381855af49150503d805f8114612f69576040519150601f19603f3d011682016040523d82523d5f602084013e612f6e565b606091505b50915091506127e7858383613047565b34156118ec5760405163b398979f60e01b815260040160405180910390fd5b5f5f80516020613cf383398151915281612fb5612757565b805190915015612fcd57805160209091012092915050565b81548015612fdc579392505050565b7fc5d2460186f7233c927e7db2dcc703c0e500b653ca82273b7bfad8045d85a470935050505090565b5f5f80516020613cf38339815191528161301d612795565b80519091501561303557805160209091012092915050565b60018201548015612fdc579392505050565b60608261305c57613057826130a3565b610db0565b815115801561307357506001600160a01b0384163b155b1561309c57604051639996b31560e01b81526001600160a01b0385166004820152602401610798565b5080610db0565b8051156130b35780518082602001fd5b604051630a12f52160e11b815260040160405180910390fd5b60405180604001604052806131386040518061012001604052805f6001600160a01b031681526020015f6001600160a01b031681526020015f6001600160a01b031681526020015f81526020015f81526020015f81526020015f81526020015f81526020015f81525090565b81526020015f81525090565b5f5b8381101561315e578181015183820152602001613146565b50505f910152565b5f815180845261317d816020860160208601613144565b601f01601f19169290920160200192915050565b602081525f610db06020830184613166565b6001600160a01b038116811461216d575f80fd5b80356111ac816131a3565b5f80604083850312156131d3575f80fd5b82356131de816131a3565b946020939093013593505050565b5f8083601f8401126131fc575f80fd5b5081356001600160401b03811115613212575f80fd5b602083019150836020828501011115613229575f80fd5b9250929050565b5f805f805f60808688031215613244575f80fd5b853561324f816131a3565b9450602086013561325f816131a3565b93506040860135925060608601356001600160401b03811115613280575f80fd5b61328c888289016131ec565b969995985093965092949392505050565b5f805f805f805f60c0888a0312156132b3575f80fd5b87356132be816131a3565b9650602088013595506040880135945060608801356132dc816131a3565b93506080880135925060a08801356001600160401b038111156132fd575f80fd5b6133098a828b016131ec565b989b979a50959850939692959293505050565b5f805f6060848603121561332e575f80fd5b8335613339816131a3565b92506020840135613349816131a3565b929592945050506040919091013590565b5f6020828403121561336a575f80fd5b5035919050565b634e487b7160e01b5f52604160045260245ffd5b60405161012081016001600160401b03811182821017156133a8576133a8613371565b60405290565b604051601f8201601f191681016001600160401b03811182821017156133d6576133d6613371565b604052919050565b5f6001600160401b038211156133f6576133f6613371565b50601f01601f191660200190565b5f82601f830112613413575f80fd5b8135613426613421826133de565b6133ae565b81815284602083860101111561343a575f80fd5b816020850160208301375f918101602001919091529392505050565b5f60208284031215613466575f80fd5b81356001600160401b0381111561347b575f80fd5b61348784828501613404565b949350505050565b5f80604083850312156134a0575f80fd5b50508035926020909101359150565b60018060a01b0380825116835280602083015116602084015280604083015116604084015250606081015160608301526080810151608083015260a081015160a083015260c081015160c083015260e081015160e08301526101008082015181840152505050565b602080825282518282018190525f9190848201906040850190845b818110156135635783516135478482516134af565b8501516101208401529284019261014090920191600101613532565b50909695505050505050565b5f8060408385031215613580575f80fd5b823561358b816131a3565b915060208301356001600160401b038111156135a5575f80fd5b6135b185828601613404565b9150509250929050565b5f80602083850312156135cc575f80fd5b82356001600160401b03808211156135e2575f80fd5b818501915085601f8301126135f5575f80fd5b813581811115613603575f80fd5b86602061014083028501011115613618575f80fd5b60209290920196919550909350505050565b5f610120828403121561363b575f80fd5b50919050565b5f806101408385031215613653575f80fd5b61365d848461362a565b94610120939093013593505050565b5f6020828403121561367c575f80fd5b8135610db0816131a3565b60ff60f81b881681525f602060e0818401526136a660e084018a613166565b83810360408501526136b8818a613166565b606085018990526001600160a01b038816608086015260a0850187905284810360c086015285518082528387019250908301905f5b81811015613709578351835292840192918401916001016136ed565b50909c9b505050505050505050505050565b5f805f610160848603121561372e575f80fd5b613738858561362a565b956101208501359550610140909401359392505050565b5f8060408385031215613760575f80fd5b823561376b816131a3565b9150602083013561377b816131a3565b809150509250929050565b600181811c9082168061379a57607f821691505b60208210810361363b57634e487b7160e01b5f52602260045260245ffd5b60208152816020820152818360408301375f818301604090810191909152601f909201601f19160101919050565b634e487b7160e01b5f52601160045260245ffd5b81810381811115610769576107696137e6565b634e487b7160e01b5f52603260045260245ffd5b5f60208284031215613831575f80fd5b5051919050565b634e487b7160e01b5f52603160045260245ffd5b80820180821115610769576107696137e6565b5f8161386d5761386d6137e6565b505f190190565b5f60018201613885576138856137e6565b5060010190565b8082028115828204841417610769576107696137e6565b634e487b7160e01b5f52601260045260245ffd5b5f826138d157634e487b7160e01b5f52601260045260245ffd5b500490565b5f82601f8301126138e5575f80fd5b81516138f3613421826133de565b818152846020838601011115613907575f80fd5b613487826020830160208701613144565b5f805f805f60a0868803121561392c575f80fd5b8551613937816131a3565b6020870151909550613948816131a3565b6040870151909450613959816131a3565b60608701519093506001600160401b0380821115613975575f80fd5b61398189838a016138d6565b93506080880151915080821115613996575f80fd5b506139a3888289016138d6565b9150509295509295909350565b80356139bb816131a3565b6001600160a01b0316825260208101356139d4816131a3565b6001600160a01b031660208301526139ee604082016131b7565b6001600160a01b03166040830152606081810135908301526080808201359083015260a0808201359083015260c0808201359083015260e0808201359083015261010090810135910152565b602080825281018290525f8360408301825b85811015613a7c57613a5e82846139b0565b61012083810135908301526101409283019290910190600101613a4c565b5095945050505050565b6001600160a01b039390931683526020830191909152604082015260600190565b5f6101208284031215613ab8575f80fd5b613ac0613385565b613ac9836131b7565b8152613ad7602084016131b7565b6020820152613ae8604084016131b7565b6040820152606083013560608201526080830135608082015260a083013560a082015260c083013560c082015260e083013560e08201526101008084013581830152508091505092915050565b6101408101613b4482856139b0565b826101208301529392505050565b6101608101613b6182866139b0565b6101208201939093526101400152919050565b610120810161076982846134af565b634e487b7160e01b5f52602160045260245ffd5b601f821115610d8d575f81815260208120601f850160051c81016020861015613bbd5750805b601f850160051c820191505b8181101561141757828155600101613bc9565b81516001600160401b03811115613bf557613bf5613371565b613c0981613c038454613786565b84613b97565b602080601f831160018114613c3c575f8415613c255750858301515b5f19600386901b1c1916600185901b178555611417565b5f85815260208120601f198616915b82811015613c6a57888601518255948401946001909101908401613c4b565b5085821015613c8757878501515f19600388901b60f8161c191681555b5050505050600190811b01905550565b5f8251613ca8818460208701613144565b919091019291505056fe52c63247e1f47db19d5ce0460030c497f067ca4cebf71ba98eeadabe20bace0052c63247e1f47db19d5ce0460030c497f067ca4cebf71ba98eeadabe20bace02a16a46d94261c7517cc8ff89f61c0ce93598e3c849801011dee649a6a557d100360894a13ba1a3210667c828492db98dca3e2076cc3735a920a3ca505d382bbc9b779b17422d0df92223018b32b4d1fa46e071723d6817e2486d003becc55f00a2646970667358221220e6f2cfe5052d9580bf3075c476d5401475bdcbd4130d05ebe95407c9607cb91164736f6c63430008140033",
  "linkReferences": {
    "contracts/blur/contracts/blend/Helpers.sol": {
      "Helpers": [
        {
          "length": 20,
          "start": 3926
        },
        {
          "length": 20,
          "start": 7141
        }
      ]
    }
  },
  "deployedLinkReferences": {
    "contracts/blur/contracts/blend/Helpers.sol": {
      "Helpers": [
        {
          "length": 20,
          "start": 3868
        },
        {
          "length": 20,
          "start": 7083
        }
      ]
    }
  }
}